{
  "_format": "hh-sol-artifact-1",
  "contractName": "PDCA",
  "sourceName": "contracts/PDCA.sol",
  "abi": [
    {
      "inputs": [],
      "stateMutability": "nonpayable",
      "type": "constructor"
    },
    {
      "anonymous": false,
      "inputs": [
        {
          "indexed": false,
          "internalType": "string",
          "name": "did",
          "type": "string"
        },
        {
          "indexed": false,
          "internalType": "string",
          "name": "issuedBy",
          "type": "string"
        },
        {
          "indexed": false,
          "internalType": "uint256",
          "name": "issuedAt",
          "type": "uint256"
        },
        {
          "indexed": false,
          "internalType": "uint256",
          "name": "expiresAt",
          "type": "uint256"
        }
      ],
      "name": "CertificateIssued",
      "type": "event"
    },
    {
      "anonymous": false,
      "inputs": [
        {
          "indexed": false,
          "internalType": "string",
          "name": "did",
          "type": "string"
        }
      ],
      "name": "CertificateRevoked",
      "type": "event"
    },
    {
      "inputs": [],
      "name": "admin",
      "outputs": [
        {
          "internalType": "address",
          "name": "",
          "type": "address"
        }
      ],
      "stateMutability": "view",
      "type": "function"
    },
    {
      "inputs": [
        {
          "internalType": "string",
          "name": "",
          "type": "string"
        }
      ],
      "name": "certificates",
      "outputs": [
        {
          "internalType": "string",
          "name": "did",
          "type": "string"
        },
        {
          "internalType": "string",
          "name": "issuedBy",
          "type": "string"
        },
        {
          "internalType": "uint256",
          "name": "issuedAt",
          "type": "uint256"
        },
        {
          "internalType": "uint256",
          "name": "expiresAt",
          "type": "uint256"
        },
        {
          "internalType": "bool",
          "name": "isValid",
          "type": "bool"
        }
      ],
      "stateMutability": "view",
      "type": "function"
    },
    {
      "inputs": [
        {
          "internalType": "string",
          "name": "_did",
          "type": "string"
        }
      ],
      "name": "getCertificate",
      "outputs": [
        {
          "internalType": "string",
          "name": "",
          "type": "string"
        },
        {
          "internalType": "string",
          "name": "",
          "type": "string"
        },
        {
          "internalType": "uint256",
          "name": "",
          "type": "uint256"
        },
        {
          "internalType": "uint256",
          "name": "",
          "type": "uint256"
        },
        {
          "internalType": "bool",
          "name": "",
          "type": "bool"
        }
      ],
      "stateMutability": "view",
      "type": "function"
    },
    {
      "inputs": [
        {
          "internalType": "string",
          "name": "_did",
          "type": "string"
        },
        {
          "internalType": "uint256",
          "name": "_validityPeriod",
          "type": "uint256"
        }
      ],
      "name": "issueCertificate",
      "outputs": [],
      "stateMutability": "nonpayable",
      "type": "function"
    },
    {
      "inputs": [
        {
          "internalType": "string",
          "name": "_did",
          "type": "string"
        }
      ],
      "name": "revokeCertificate",
      "outputs": [],
      "stateMutability": "nonpayable",
      "type": "function"
    },
    {
      "inputs": [
        {
          "internalType": "string",
          "name": "_did",
          "type": "string"
        }
      ],
      "name": "verifyCertificate",
      "outputs": [
        {
          "internalType": "bool",
          "name": "",
          "type": "bool"
        }
      ],
      "stateMutability": "view",
      "type": "function"
    }
  ],
  "bytecode": "0x6080604052348015600f57600080fd5b5033600160006101000a81548173ffffffffffffffffffffffffffffffffffffffff021916908373ffffffffffffffffffffffffffffffffffffffff16021790555061139d806100606000396000f3fe608060405234801561001057600080fd5b50600436106100625760003560e01c8063142e1542146100675780638b23d875146100835780638f2b91ea146100b3578063e6d36675146100e7578063ed0f2e7514610103578063f851a44014610137575b600080fd5b610081600480360381019061007c9190610b28565b610155565b005b61009d60048036038101906100989190610b28565b6102c6565b6040516100aa9190610b8c565b60405180910390f35b6100cd60048036038101906100c89190610b28565b610463565b6040516100de959493929190610c3f565b60405180910390f35b61010160048036038101906100fc9190610ccc565b6105cc565b005b61011d60048036038101906101189190610b28565b6107f4565b60405161012e959493929190610c3f565b60405180910390f35b61013f6109a8565b60405161014c9190610d69565b60405180910390f35b600160009054906101000a900473ffffffffffffffffffffffffffffffffffffffff1673ffffffffffffffffffffffffffffffffffffffff163373ffffffffffffffffffffffffffffffffffffffff16146101e5576040517f08c379a00000000000000000000000000000000000000000000000000000000081526004016101dc90610df6565b60405180910390fd5b6000816040516101f59190610e52565b908152602001604051809103902060040160009054906101000a900460ff16610253576040517f08c379a000000000000000000000000000000000000000000000000000000000815260040161024a90610edb565b60405180910390fd5b600080826040516102649190610e52565b908152602001604051809103902060040160006101000a81548160ff0219169083151502179055507f266095b5af7e2323760fef151f1d78896740cd2cc1b73a6357ff9e4c3fdae740816040516102bb9190610efb565b60405180910390a150565b6000806000836040516102d99190610e52565b90815260200160405180910390206040518060a001604052908160008201805461030290610f4c565b80601f016020809104026020016040519081016040528092919081815260200182805461032e90610f4c565b801561037b5780601f106103505761010080835404028352916020019161037b565b820191906000526020600020905b81548152906001019060200180831161035e57829003601f168201915b5050505050815260200160018201805461039490610f4c565b80601f01602080910402602001604051908101604052809291908181526020018280546103c090610f4c565b801561040d5780601f106103e25761010080835404028352916020019161040d565b820191906000526020600020905b8154815290600101906020018083116103f057829003601f168201915b5050505050815260200160028201548152602001600382015481526020016004820160009054906101000a900460ff16151515158152505090508060800151801561045b5750806060015142105b915050919050565b60008180516020810182018051848252602083016020850120818352809550505050505060009150905080600001805461049c90610f4c565b80601f01602080910402602001604051908101604052809291908181526020018280546104c890610f4c565b80156105155780601f106104ea57610100808354040283529160200191610515565b820191906000526020600020905b8154815290600101906020018083116104f857829003601f168201915b50505050509080600101805461052a90610f4c565b80601f016020809104026020016040519081016040528092919081815260200182805461055690610f4c565b80156105a35780601f10610578576101008083540402835291602001916105a3565b820191906000526020600020905b81548152906001019060200180831161058657829003601f168201915b5050505050908060020154908060030154908060040160009054906101000a900460ff16905085565b600160009054906101000a900473ffffffffffffffffffffffffffffffffffffffff1673ffffffffffffffffffffffffffffffffffffffff163373ffffffffffffffffffffffffffffffffffffffff161461065c576040517f08c379a000000000000000000000000000000000000000000000000000000000815260040161065390610df6565b60405180910390fd5b6000808360405161066d9190610e52565b908152602001604051809103902060020154146106bf576040517f08c379a00000000000000000000000000000000000000000000000000000000081526004016106b690610fc9565b60405180910390fd5b6040518060a001604052808381526020016040518060400160405280600e81526020017f5044434120417574686f726974790000000000000000000000000000000000008152508152602001428152602001824261071d9190611018565b8152602001600115158152506000836040516107399190610e52565b9081526020016040518091039020600082015181600001908161075c91906111f8565b50602082015181600101908161077291906111f8565b50604082015181600201556060820151816003015560808201518160040160006101000a81548160ff0219169083151502179055509050507f4ab34dc906730b6aa74b68c31f718de538e7eadbac45f92b35de5fb2ce70f58e824283426107d99190611018565b6040516107e893929190611316565b60405180910390a15050565b60608060008060008060008760405161080d9190610e52565b90815260200160405180910390206040518060a001604052908160008201805461083690610f4c565b80601f016020809104026020016040519081016040528092919081815260200182805461086290610f4c565b80156108af5780601f10610884576101008083540402835291602001916108af565b820191906000526020600020905b81548152906001019060200180831161089257829003601f168201915b505050505081526020016001820180546108c890610f4c565b80601f01602080910402602001604051908101604052809291908181526020018280546108f490610f4c565b80156109415780601f1061091657610100808354040283529160200191610941565b820191906000526020600020905b81548152906001019060200180831161092457829003601f168201915b5050505050815260200160028201548152602001600382015481526020016004820160009054906101000a900460ff161515151581525050905080600001518160200151826040015183606001518460800151955095509550955095505091939590929450565b600160009054906101000a900473ffffffffffffffffffffffffffffffffffffffff1681565b6000604051905090565b600080fd5b600080fd5b600080fd5b600080fd5b6000601f19601f8301169050919050565b7f4e487b7100000000000000000000000000000000000000000000000000000000600052604160045260246000fd5b610a35826109ec565b810181811067ffffffffffffffff82111715610a5457610a536109fd565b5b80604052505050565b6000610a676109ce565b9050610a738282610a2c565b919050565b600067ffffffffffffffff821115610a9357610a926109fd565b5b610a9c826109ec565b9050602081019050919050565b82818337600083830152505050565b6000610acb610ac684610a78565b610a5d565b905082815260208101848484011115610ae757610ae66109e7565b5b610af2848285610aa9565b509392505050565b600082601f830112610b0f57610b0e6109e2565b5b8135610b1f848260208601610ab8565b91505092915050565b600060208284031215610b3e57610b3d6109d8565b5b600082013567ffffffffffffffff811115610b5c57610b5b6109dd565b5b610b6884828501610afa565b91505092915050565b60008115159050919050565b610b8681610b71565b82525050565b6000602082019050610ba16000830184610b7d565b92915050565b600081519050919050565b600082825260208201905092915050565b60005b83811015610be1578082015181840152602081019050610bc6565b60008484015250505050565b6000610bf882610ba7565b610c028185610bb2565b9350610c12818560208601610bc3565b610c1b816109ec565b840191505092915050565b6000819050919050565b610c3981610c26565b82525050565b600060a0820190508181036000830152610c598188610bed565b90508181036020830152610c6d8187610bed565b9050610c7c6040830186610c30565b610c896060830185610c30565b610c966080830184610b7d565b9695505050505050565b610ca981610c26565b8114610cb457600080fd5b50565b600081359050610cc681610ca0565b92915050565b60008060408385031215610ce357610ce26109d8565b5b600083013567ffffffffffffffff811115610d0157610d006109dd565b5b610d0d85828601610afa565b9250506020610d1e85828601610cb7565b9150509250929050565b600073ffffffffffffffffffffffffffffffffffffffff82169050919050565b6000610d5382610d28565b9050919050565b610d6381610d48565b82525050565b6000602082019050610d7e6000830184610d5a565b92915050565b7f4f6e6c792061646d696e2063616e20706572666f726d2074686973206163746960008201527f6f6e000000000000000000000000000000000000000000000000000000000000602082015250565b6000610de0602283610bb2565b9150610deb82610d84565b604082019050919050565b60006020820190508181036000830152610e0f81610dd3565b9050919050565b600081905092915050565b6000610e2c82610ba7565b610e368185610e16565b9350610e46818560208601610bc3565b80840191505092915050565b6000610e5e8284610e21565b915081905092915050565b7f436572746966696361746520697320616c7265616479207265766f6b6564206f60008201527f7220646f6573206e6f7420657869737400000000000000000000000000000000602082015250565b6000610ec5603083610bb2565b9150610ed082610e69565b604082019050919050565b60006020820190508181036000830152610ef481610eb8565b9050919050565b60006020820190508181036000830152610f158184610bed565b905092915050565b7f4e487b7100000000000000000000000000000000000000000000000000000000600052602260045260246000fd5b60006002820490506001821680610f6457607f821691505b602082108103610f7757610f76610f1d565b5b50919050565b7f436572746966696361746520616c726561647920657869737473000000000000600082015250565b6000610fb3601a83610bb2565b9150610fbe82610f7d565b602082019050919050565b60006020820190508181036000830152610fe281610fa6565b9050919050565b7f4e487b7100000000000000000000000000000000000000000000000000000000600052601160045260246000fd5b600061102382610c26565b915061102e83610c26565b925082820190508082111561104657611045610fe9565b5b92915050565b60008190508160005260206000209050919050565b60006020601f8301049050919050565b600082821b905092915050565b6000600883026110ae7fffffffffffffffffffffffffffffffffffffffffffffffffffffffffffffffff82611071565b6110b88683611071565b95508019841693508086168417925050509392505050565b6000819050919050565b60006110f56110f06110eb84610c26565b6110d0565b610c26565b9050919050565b6000819050919050565b61110f836110da565b61112361111b826110fc565b84845461107e565b825550505050565b600090565b61113861112b565b611143818484611106565b505050565b5b818110156111675761115c600082611130565b600181019050611149565b5050565b601f8211156111ac5761117d8161104c565b61118684611061565b81016020851015611195578190505b6111a96111a185611061565b830182611148565b50505b505050565b600082821c905092915050565b60006111cf600019846008026111b1565b1980831691505092915050565b60006111e883836111be565b9150826002028217905092915050565b61120182610ba7565b67ffffffffffffffff81111561121a576112196109fd565b5b6112248254610f4c565b61122f82828561116b565b600060209050601f8311600181146112625760008415611250578287015190505b61125a85826111dc565b8655506112c2565b601f1984166112708661104c565b60005b8281101561129857848901518255600182019150602085019450602081019050611273565b868310156112b557848901516112b1601f8916826111be565b8355505b6001600288020188555050505b505050505050565b7f5044434120417574686f72697479000000000000000000000000000000000000600082015250565b6000611300600e83610bb2565b915061130b826112ca565b602082019050919050565b600060808201905081810360008301526113308186610bed565b90508181036020830152611343816112f3565b90506113526040830185610c30565b61135f6060830184610c30565b94935050505056fea264697066735822122061b02649721b5c46b581643902e336eefc884a9a225cd7df2eba17b2d0e8cb8f64736f6c634300081c0033",
  "linkReferences": {},
  "deployedLinkReferences": {}
}